:020000040800F2
:1000000010040020A1010008C30D0008D90A00084F
:10001000C10D0008AD020008710E000800000000CC
:10002000000000000000000000000000C70D0008F4
:10003000AF02000800000000C50D0008C90D00084F
:10004000BB010008BB010008BB010008BB010008A0
:10005000BB010008BB010008BB010008BB01000890
:10006000BB010008BB010008BB010008BB01000880
:10007000BB010008BB010008BB010008BB01000870
:10008000BB010008BB010008BB010008BB01000860
:10009000BB010008BB010008BB010008BB01000850
:1000A000BB010008BB010008BB010008BB01000840
:1000B000BB010008BB010008BB010008BB01000830
:1000C000BB010008BB010008BB010008BB01000820
:1000D000BB010008BB010008BB010008BB01000810
:1000E000BB010008BB010008BB010008BB01000800
:1000F000BB010008BB010008BB010008BB010008F0
:10010000BB010008BB010008BB010008BB010008DF
:10011000BB010008BB010008BB010008BB010008CF
:10012000BB010008BB010008BB010008BB010008BF
:10013000BB010008BB010008BB010008BB010008AF
:10014000BB010008BB010008BB010008BB0100089F
:10015000BB010008BB010008BB010008BB0100088F
:10016000BB010008BB010008BB010008BB0100087F
:10017000BB010008BB010008BB0100080000000033
:10018000BB010008BB010008DFF810D000F07CF8CC
:1001900000480047150F0008AFF30080100400204E
:1001A0000648804706480047FEE7FEE7FEE7FEE711
:1001B000FEE7FEE7FEE7FEE7FEE7FEE7550E000876
:1001C000890100082DE9F05F0546002092469B4614
:1001D00088460646814640241BE02846414647465D
:1001E000224600F041F853465A46C01A914110D3B6
:1001F00011461846224600F028F82D1A67EB010830
:100200004F4622460120002100F01FF817EB00099D
:100210004E41201EA4F10104DFDC484631462A4647
:100220004346BDE8F09FD2B201E000F8012B491E21
:10023000FBD270470022F6E710B513460A46044683
:100240001946FFF7F0FF204610BD202A04DB203AB4
:1002500000FA02F1002070479140C2F1200320FA19
:1002600003F3194390407047202A04DB203A21FA17
:1002700002F00021704721FA02F3D040C2F12002BF
:100280009140084319467047064C074D06E0E06868
:1002900040F0010394E8070098471034AC42F6D3CD
:1002A000FFF776FFA0100008C0100008FEE77047B7
:1002B00070B5044600F0F0F80546601C02D0044812
:1002C0000078044400F0E8F8401BA042FAD370BD67
:1002D000000000202DE9F84F00224FF0010803250F
:1002E0004FF00F0E0B6808FA02F42340A3426ED1C0
:1002F0004E68012E05D0022E03D0112E01D0122EF1
:1003000012D186684FEA420C05FA0CF7BE43CF685B
:1003100007FA0CF7374387604668A6430C79C4F3A5
:100320000014944034434460C668570005FA07FC43
:100330008C6826EA0C06BC403443C4604C68022C2E
:1003400001D0122C13D1D40800EB8404A346D4F8B6
:10035000209054074FEAD46A0EFA0AF629EA0609F1
:100360000E6906FA0AF646EA0906CBF82060066826
:100370000C7926EA0C0604F00304BC403443046004
:100380004C68E40065D5364C266846F48046266005
:10039000246822F0030604F480440094314C344471
:1003A000A446D4F808489607370F0EFA07F6B44368
:1003B0002D4EB04201D1002624E02C4EB04201D196
:1003C00001261FE02A4EB04202D102261AE040E088
:1003D000284EB04201D1032614E0274EB04201D18D
:1003E00004260FE0254EB04201D105260AE0244E36
:1003F000B04201D1062605E0224EB04201D10726C7
:1004000000E00826BE402643CCF808681E4E34683B
:100410004F689C43FF0300D51C4334601A4C241DD5
:1004200026684F689E43BF0300D51E432660164EC4
:10043000083634684F689C43FF0200D51C43346083
:10044000114E0C3634684F689C43BF0200D51C43E4
:100450003460521C102AFFF445AFBDE8F88F00004D
:1004600044380240003001400000024000040240D5
:1004700000080240000C024000100240001402403C
:1004800000180240001C0240003C01400AB181619A
:1004900070470904FBE700000148806870470000CE
:1004A0000000002002488168027811448160704792
:1004B000000000200B4810B5016841F40071016094
:1004C000016841F480610160016841F4807101605C
:1004D000032000F061F8002000F006F800F024F896
:1004E000002010BD003C024070B50D4D04464FF495
:1004F0007A712878B1FBF0F00A490968B1FBF0F095
:1005000000F0D6FA48B9102C07D200222146501E1E
:1005100000F022F800206C6070BD012070BD00006A
:10052000000000200C0000200A4808B5016841F4D2
:1005300080410160006800F4804000900548001F81
:10054000016841F080510160006800F08050009027
:1005500008BD000044380240F0B40E4B1B680C4646
:10056000C3F30223C3F10705042D00D90425191D87
:10057000072901D2002300E0DB1E012606FA05F15F
:10058000491E214099409E40761E16403143F0BCE2
:1005900000F082BC0CED00E0064900F0070208689C
:1005A0004FF6FF03184040EA0220034A1043086058
:1005B000704700000CED00E00000FA052DE9F0475F
:1005C0000E46050065D0DFF81481D8F80000F7B2B8
:1005D00000F00F00B04207D288F80070D8F8000091
:1005E00000F00F00B04254D128683D4C810712D56D
:1005F000400703D5206840F4E050206028780007C9
:1006000003D5206840F4604020602068A96820F08D
:10061000F000084320602878C0072DD03049686872
:100620000839012812D0022813D0032811D00968F4
:10063000890700292DDA216821F003010143216097
:10064000FFF72AFF814641F2883A0EE009688903E4
:10065000EFE709688901ECE7FFF71EFFA0EB09014E
:10066000514502D90320BDE8F0872068696800F091
:100670000C00B0EB810FEFD1D8F80010404601F02C
:100680000F01B14207D90770006800F00F00B042B7
:1006900001D00120E7E72878400705D52068E96800
:1006A00020F4E050084320602878000706D5206831
:1006B000296920F4604040EAC100206000F018F889
:1006C0002168084AC1F30311515CC840064908601B
:1006D00006480068FFF708FF0020C4E7003C02401E
:1006E00008380240901000080C0000200400002090
:1006F000154810B5006810F00C02144813D01449C6
:10070000042A0FD0082A0ED10F4C241F2268236818
:1007100002F03F025B0207D52068C0F38810A0FBFF
:10072000010106E0084610BD2168C1F38811A1FB54
:1007300000010023FFF746FD2168C1F30141491C78
:100740004900B0FBF1F010BD083802400024F4006D
:1007500040787D012DE9F84F04006ED02078DFF855
:100760003C93C007A9F104054AD009F104000168CF
:10077000C1F38101012908D00068C0F3810002287B
:100780000AD1D9F80000400206D52868800337D581
:1007900060680028E1D033E06068B0F5803F10D099
:1007A000B0F5A02F286810D020F480302860286889
:1007B00020F4802028606068A8B1FFF76DFE06462F
:1007C0000DE0286840F48030F4E740F48020286091
:1007D000F7E700BFFFF760FE801B642873D8286826
:1007E0008003F7D50CE0FFF757FE064605E000BF93
:1007F000FFF752FE801B6428F0D828688003F7D4E6
:100800002078DFF89C8280074FF0000A3ED5A3488D
:10081000001D016811F00C0F08D00068C0F38100C2
:1008200002280BD1D9F80000400207D428688007BD
:1008300016D5E068012800D112E02BE1E068B8B1DC
:100840000120C8F80000FFF727FE064605E000BFBC
:10085000FFF722FE801B0228C0D828688007F7D542
:100860002868216920F0F80040EAC10028600DE006
:10087000C8F800A0FFF710FE064604E0FFF70CFEE4
:10088000801B02281FD828688007F7D4207800072B
:1008900022D5824E83486169703671B101210160B1
:1008A000FFF7FAFD074604E0FFF7F6FDC01B02283C
:1008B00009D830688007F7D50EE0C0F800A0FFF730
:1008C000EBFD074605E082E0FFF7E6FDC01B0228CE
:1008D0007DD830688007F7D42078400768D5DFF8E6
:1008E000BCB100270BF13C0BDBF80000C0000BD4BF
:1008F000DBF8001041F08051CBF80010DBF800006D
:10090000012700F080500090674E3068C00510D479
:10091000306840F480703060FFF7BEFD009005E065
:10092000FFF7BAFD0099401A022850D83068C00578
:10093000F6D55A4EA0686C3601280FD005283068CD
:1009400010D020F001003060306820F004003060EA
:10095000A068B8B1FFF7A0FD00900FE0306840F04C
:100960000100F4E740F004003060F7E7FFF794FD82
:100970000099411A41F28830814266D83068800778
:10098000F4D50EE0FFF788FD009007E0FFF784FD47
:100990000099411A41F28830814256D83068800768
:1009A000F4D42FB1DBF8001021F08051CBF8001007
:1009B000A069C8B33949091D0968C1F38101022939
:1009C0004AD00228504607D0C8F8600000E03CE05A
:1009D000FFF762FD04463BE04746C8F86000FFF7BA
:1009E0005BFD064605E000BFFFF756FD801B0228B1
:1009F0002BD828688001F7D4D4E907010843A16AFD
:100A00002A4A490802EB0141626A41EA821108431D
:100A100094F82C1040EA0161C9F8001001203866F2
:100A2000FFF73AFD044606E036E000BFFFF734FD6D
:100A3000001B022809D828688001F7D52CE000BFE8
:100A4000FFF72AFD001B022802D90320BDE8F88F1A
:100A500028688001F4D41FE00128F7D0D9F80000FD
:100A6000E26900F48001914214D1226A00F03F0152
:100A700091420FD147F6C071626A0140914209D19B
:100A8000A26A00F44031914204D1E16A00F0706042
:100A9000884201D00120D9E70020D7E7043802407E
:100AA00000004742800E4742007000400000FFFFF8
:100AB00010B5401EB0F1807F01D3012010BD4FF072
:100AC000E02460610F21601700F0E6F90020A061CA
:100AD00007202061002010BDFEE710B5012000F0C6
:100AE00005F8BDE810400220FFF7E2BB70B5144DD9
:100AF000044600224FF480712846FFF7C7FC200906
:100B000000F07CF80122560231462846FFF7BEFC71
:100B100000F0F7F9002231462846FFF7B7FC2046DF
:100B200000F06CF8012231462846FFF7AFFC00F0D8
:100B3000E8F931462846BDE870400022FFF7A6BC20
:100B40000004024070B5144D0446012211022846EB
:100B5000FFF79CFC200900F051F8012256023146B3
:100B60002846FFF793FC00F0CCF9002231462846D6
:100B7000FFF78CFC204600F041F801223146284660
:100B8000FFF784FC00F0BDF931462846BDE870400F
:100B90000022FFF77BBC00000004024010B5FFF705
:100BA000D1FFBDE8104000F0ACB910B581B101290A
:100BB00011D0022911D0032911D15430C0B240F014
:100BC0008000FFF793FFBDE810400120FFF770BBE6
:100BD00040F08000F5E74030F0E71430EEE710BD5C
:100BE00070B50546002405E0FFF7ACFF00F089F979
:100BF000641CE4B2285D0028F6D170BD70B50446CF
:100C0000134D000701D5012200E000228021284673
:100C1000FFF73CFC600701D5012200E000224021E3
:100C20002846FFF733FCA00701D5012200E000228F
:100C300020212846FFF72AFCE00701D0012200E02E
:100C400000222846BDE870401021FFF71FBC0000BD
:100C5000000C024070B52820FFF72AFB314C00221F
:100C60004FF480712046FFF711FC0320FFF7C6FF09
:100C70000122550229462046FFF708FC00F041F901
:100C8000002229462046FFF701FC0120FFF710FB58
:100C90000320FFF7B3FF012229462046FFF7F6FBAA
:100CA00000F02FF9002229462046FFF7EFFB012034
:100CB000FFF7FEFA0320FFF7A1FF01222946204695
:100CC000FFF7E4FB00F01DF9002229462046FFF75C
:100CD000DDFB0120FFF7ECFA2820FFF707FF0120DA
:100CE000FFF7E6FA2820FFF701FF0120FFF7E0FAFF
:100CF0000F20FFF7FBFE0120FFF7DAFA0120FFF7D4
:100D0000F5FE0220FFF7D4FA0620FFF7EFFE0120E0
:100D1000FFF7CEFA0220FFF7E9FEBDE8704002209F
:100D2000FFF7C6BA000402402DE9F04186B0142155
:100D30006846FFF77FFA1F480024016841F08001F0
:100D40000160016801F080010591016841F008012E
:100D50000160016801F008010591016841F002019C
:100D600001600068144F00F0020005900022F0219D
:100D70003846FFF78BFBDFF844804FF440760022C3
:100D800031464046FFF782FBF02000900125CDE977
:100D90000154694638460394FFF79CFA0096CDE962
:100DA0000154694640460394FFF794FA06B0BDE843
:100DB000F081000030380240000C02400004024084
:100DC000FEE7FEE770477047FFF76CBB30B593B0A6
:100DD00030216846FFF72EFA14210CA8FFF72AFAF3
:100DE0001A480025016841F080510160006800F058
:100DF000805011901648016841F4804101600068FC
:100E0000022400F480401190012000900004019021
:100E10008001CDE90640192008904FF4A870CDE973
:100E2000090404200B906846FFF794FC0CA90F20DE
:100E300081E831004FF4A0500F90E002109005219E
:100E40000CA8FFF7BBFB13B030BD000040380240D8
:100E5000007000400548016841F4700101600349D9
:100E60004FF00060803908607047000088ED00E0B6
:100E7000FEE700000FB4084610B5064A02A900F0CC
:100E80002AF8044602A9002000F036F8204610BCDB
:100E90005DF814FBF90E00080907090E002804DBB1
:100EA00000F1E02080F80014704700F00F0000F11E
:100EB000E02080F8141D704702E008C8121F08C126
:100EC000002AFAD170477047002001E001C1121FCB
:100ED000002AFBD170472DE9F04116460F46044623
:100EE000002503E03946B047641C6D1C20780028BB
:100EF000F8D12846BDE8F0810A68531C0B601070D9
:100F0000704700204FF47A71401C80B28842FBD3B6
:100F1000704700009AB00024FFF7CCFAFFF756FFA5
:100F2000FFF702FFFFF796FE57A16846FFF7A2FF03
:100F30006846FFF755FE4FF4FA652846FFF7B8F903
:100F4000FFF7CBFD00210420FFF72FFE4820FFF71D
:100F500025FE01210820FFF728FE4520FFF71EFE91
:100F600002210C20FFF721FE4C20FFF717FE032182
:100F70001020FFF71AFE4C20FFF710FE4F20FFF75E
:100F80000DFE2846FFF794F964270A25002108463C
:100F9000FFF70BFEB4FBF7F0B0FBF5F105FB11001A
:100FA0003030FFF7FBFDB4FBF5F0B0FBF5F105FBCE
:100FB00011003030FFF7F2FDB4FBF5F005FB1040F7
:100FC0003030FFF7EBFD01211020FFF7EEFD04F1BB
:100FD000FA06B6FBF7F0B0FBF5F105FB1100303077
:100FE000FFF7DCFDB6FBF5F0B0FBF5F105FB1100FA
:100FF0003030FFF7D3FDB6FBF5F005FB1060303065
:10100000FFF7CCFD02210620FFF7CFFDFA36B6FB35
:10101000F7F0B0FBF5F105FB11003030FFF7BEFD36
:10102000B6FBF5F0B0FBF5F105FB11003030FFF732
:10103000B5FDB6FBF5F005FB10603030FFF7AEFDF7
:1010400003210920FFF7B1FDFA36B6FBF7F0B0FB3C
:10105000F5F105FB11003030FFF7A0FDB6FBF5F010
:10106000B0FBF5F105FB11003030FFF797FDB6FB43
:10107000F5F005FB10603030FFF790FD6420FFF7BE
:1010800017F9641C82E7000053544D33320000000E
:101090000000000000000000010203040607080928
:1010A000C01000080000002010000000B80E00086A
:1010B000D01000081000002000040000C80E000836
:1010C0000100000010000000000000000024F400F7
:040000050800018965
:00000001FF
